:10000000F5C0000022C1000020C100001EC1000098
:100010001CC100001AC1000018C1000016C1000078
:1000200014C1000012C1000010C100000EC1000088
:100030000CC100000AC1000008C1000006C1000098
:1000400004C1000002C1000000C10000FEC00000A9
:10005000FCC00000FAC00000F8C000006FC400003F
:10006000F4C0000035C400000AC40000EEC0000067
:10007000ECC00000EAC00000E8C00000E6C00000DC
:10008000E4C00000E2C00000E0C00000DEC00000EC
:10009000DCC00000DAC00000D8C00000D6C00000FC
:1000A000D4C00000D2C00000D0C00000CEC000000C
:1000B000CCC00000CAC00000C8C00000C6C000001C
:1000C000C4C00000C2C00000C0C00000BEC000002C
:1000D000BCC00000BAC00000B8C00000B6C000003C
:1000E000B4C0000000000A0B02090C0D0E08070343
:1000F00004010000000000000000000000000000FB
:1001000000000000000000000000000000000000EF
:1001100012111000000000000000000000000000AC
:100120000000000000000000000000002200250088
:1001300028002B002E0031003400020100000501D0
:1001400008010B0100002100240027002A002D00D7
:100150003000330001010000040107010A01050518
:100160000505070508080808020202020A0A08082D
:10017000040404040101010101010101030303035B
:1001800003030303040707070C0C0C0C0C0C0C0CEA
:100190000202020206060606060606060B0B0B0BFB
:1001A0000B0B0B0B01021020200808102040102020
:1001B000408002010201080402010102040810202B
:1001C0004080804020100804020180040201804029
:1001D0002010080402010804020101020408102092
:1001E00040800102040810204080E60611241FBE52
:1001F000CFEFD1E2DEBFCDBF00E00CBF23E0A8E728
:10020000B2E001C01D92A232B207E1F712E0A0E015
:10021000B2E0EEE6F2E100E00BBF02C007900D9203
:10022000A837B107D9F710E0C6EFD0E000E005C06D
:1002300021970109802FFE01F6D5C53FD10780E047
:100240000807B1F7C5D30C943509DACE90E0FC016C
:10025000EC55FE4F2491825A9E4FFC0184918823D5
:1002600099F090E0880F991FFC01EC5BFE4FA5917F
:10027000B491FC01E65DFE4F859194918FB7F8949F
:10028000EC91E22BEC938FBF08950895AF92BF924B
:10029000CF92DF92EF92FF920F931F93CF93DF9352
:1002A0006C017B018B01040F151FEB015E01AE1881
:1002B000BF08C017D10759F06991D601ED91FC91A3
:1002C0000190F081E02DC6011995892B79F7C501C0
:1002D000DF91CF911F910F91FF90EF90DF90CF9022
:1002E000BF90AF900895FC01538D448D252F30E0D1
:1002F000842F90E0821B930B541710F0CF96089533
:1003000001970895FC01918D828D981761F0A28D5F
:10031000AE0FBF2FB11D5D968C91928D9F5F9F7325
:10032000928F90E008958FEF9FEF08952FB7F89484
:1003300080917D0290917E02A0917F02B091800217
:100340002FBF8093890290938A02A0938B02B0936F
:100350008C0281E892E0D6DF97FF26C02FB7F89491
:1003600080917D0290917E02A0917F02B0918002E7
:100370002FBF4091890250918A0260918B02709147
:100380008C02841B950BA60BB70B409185025091F4
:100390008602609187027091880284179507A607EC
:1003A000B707B8F28FEF9FEF0895FC01918D828D12
:1003B000981731F0828DE80FF11D858D90E008953A
:1003C0008FEF9FEF0895FC01918D228D892F90E092
:1003D000805C9F4F821B91098F739927089581E854
:1003E00092E0F1DF21E0892B09F420E0822F0895CB
:1003F000FC01A48DA80FB92FB11DA35ABF4F2C919A
:10040000848D90E001968F739927848FA689B78990
:100410002C93A089B1898C91837080648C93938D87
:10042000848D981306C00288F389E02D80818F7D2A
:1004300080830895EF92FF920F931F93CF93DF93E2
:10044000EC0181E0888F9B8D8C8D98131AC0E88910
:10045000F989808185FF15C09FB7F894EE89FF89DF
:100460006083E889F98980818370806480839FBF7D
:1004700081E090E0DF91CF911F910F91FF90EF907D
:100480000895F62E0B8D10E00F5F1F4F0F7311278D
:10049000E02E8C8D8E110BC00FB607FCFACFE889C9
:1004A000F989808185FFF5CFCE01A2DFF2CFEB8DF8
:1004B000EC0FFD2FF11DE35AFF4FF0829FB7F89428
:1004C0000B8FEA89FB8980818062D0CFCF93DF9345
:1004D000EC01888D8823B1F0AA89BB89E889F98964
:1004E0008C9185FD03C0808186FD0CC00FB607FC92
:1004F000F7CF8C9185FFF2CF808185FFEDCFCE01C4
:1005000077DFEACFDF91CF91089580E090E0892BEB
:1005100021F065DF81110E94000080E090E0892BCE
:1005200049F080E090E0892B29F00E9400008111C1
:100530000E94000080E090E0892B49F080E090E08C
:10054000892B29F00E94000081110E94000080E0A8
:1005500090E0892B49F080E090E0892B29F00E94FF
:10056000000081110C9400000895282F30E0F9015B
:10057000EC51FF4F9491F901EC55FE4F4491225AF2
:100580003E4FF9012491222309F434C0992309F143
:1005900091509231F0F4E92FF0E08827EE52FD4FB0
:1005A0008F4F41C403030703E402FB02FF02E90289
:1005B0000A03100314031A031E03220328032C0347
:1005C000E902300336033A03809180008F778093ED
:1005D0008000E22FF0E0EE0FFF1FE65DFE4FA591D9
:1005E000B4918FB7F894EC91611148C040954E23B7
:1005F0004C938FBF0895809180008F7DE8CF8091CC
:100600008000877FE4CF84B58F7784BDE2CF84B547
:100610008F7DFBCF8091B0008F778093B000D9CFD2
:100620008091B0008F7DF9CF809190008F7780937B
:100630009000CFCF809190008F7DF9CF8091900076
:10064000877FF5CF8091A0008F778093A000C1CFE6
:100650008091A0008F7DF9CF8091A000877FF5CF9A
:10066000809120018F7780932001B3CF809120016A
:100670008F7DF9CF80912001877FF5CF4E2BB8CFAA
:100680003FB7F8948091790290917A02A0917B0211
:10069000B0917C0226B5A89B05C02F3F19F00196AA
:1006A000A11DB11D3FBFBA2FA92F982F8827BC01CC
:1006B000CD01620F711D811D911D42E0660F771FF4
:1006C000881F991F4A95D1F708958F929F92AF92F4
:1006D000BF92CF92DF92EF92FF924B015C01D0DF8D
:1006E0006B017C01CDDF6C197D098E099F09683E85
:1006F000734081059105B0F321E0821A9108A108A9
:10070000B10888EEC80E83E0D81EE11CF11C8114EC
:100710009104A104B10431F7FF90EF90DF90CF90E6
:10072000BF90AF909F908F9008950F931F93CF939A
:10073000DF938C01D0E0C0E0C017D10790F461E0F6
:100740008DE013DF6EE170E080E090E0BEDF60E0FE
:100750008DE00BDF6EE170E080E090E0B6DF219687
:10076000EBCFDF91CF911F910F91089542E050E0C0
:1007700068E172E081E892E089CDCF93DF93FC01DC
:1007800001900020E9F73197AF01481B590BBC01DC
:1007900081E892E07BDDEC01E9DF8C0F9D1FDF91AA
:1007A000CF9108950F931F93CF93DF93EC0188812E
:1007B0009981009759F02A813B812617370730F03D
:1007C00081E0DF91CF911F910F9108958B016F5FB1
:1007D0007F4F56D4009759F0998388831B830A83EF
:1007E0002C813D81232B61F7FC011082E9CF80E051
:1007F000E8CFCF93DF93EC0188819981009709F0CE
:10080000B6D3198218821D821C821B821A82DF9144
:10081000CF910895FC0180819181009709F0A7C3D1
:100820000895EF92FF920F931F93CF93DF93EC0104
:100830007B01198218821B821A821D821C82FB0195
:1008400001900020E9F731978F01061B170BB801C3
:10085000A9DF811108C0CE01DF91CF911F910F91C7
:10086000FF90EF90C6CF1D830C83B70188819981DB
:10087000DF91CF911F910F91FF90EF90EFC41F92E6
:100880000F920FB60F9211240BB60F922F933F9336
:100890004F935F936F937F938F939F93AF93BF9388
:1008A000EF93FF9381E892E0A3DDFF91EF91BF9179
:1008B000AF919F918F917F916F915F914F913F91F8
:1008C0002F910F900BBE0F900FBE0F901F90189599
:1008D0001F920F920FB60F9211240BB60F922F9307
:1008E0008F939F93EF93FF93E0919102F091920287
:1008F0008081E0919702F091980282FD1DC0908165
:1009000080919A028F5F8F7320919B02821741F032
:10091000E0919A02F0E0EF57FD4F958F80939A0295
:10092000FF91EF919F918F912F910F900BBE0F90A0
:100930000FBE0F901F9018958081F2CF1F920F92DB
:100940000FB60F9211242F933F938F939F93AF93E2
:10095000BF9380917D0290917E02A0917F02B09121
:1009600080023091780223E0230F2D3758F501964D
:10097000A11DB11D2093780280937D0290937E0289
:10098000A0937F02B09380028091790290917A02C5
:10099000A0917B02B0917C020196A11DB11D8093B4
:1009A000790290937A02A0937B02B0937C02BF916C
:1009B000AF919F918F913F912F910F900FBE0F900C
:1009C0001F90189526E8230F0296A11DB11DD2CFC6
:1009D000CF93DF93CDB7DEB7AC970FB6F894DEBFF9
:1009E0000FBECDBF789484B5826084BD84B581602C
:1009F00084BD85B5826085BD85B5816085BD8091EA
:100A00006E00816080936E00109281008091810061
:100A10008260809381008091810081608093810059
:100A2000809180008160809380008091B10084601B
:100A30008093B1008091B00081608093B00080917C
:100A400091008260809391008091910081608093F9
:100A50009100809190008160809390008091A1002E
:100A600082608093A1008091A10081608093A100A9
:100A70008091A00081608093A0008091210182601C
:100A800080932101809121018160809321018091D7
:100A9000200181608093200180917A00846080939E
:100AA0007A0080917A00826080937A0080917A0047
:100AB000816080937A0080917A00806880937A00C8
:100AC0001092C10061E08CE050DD68EC70E080E0E5
:100AD00090E0FBDD8CE0BADB8DE0B8DBE0919102C9
:100AE000F091920282E08083E0918D02F0918E027B
:100AF0001082E0918F02F091900280E18083109249
:100B00009902E0919502F091960286E08083E0914F
:100B10009302F0919402808180618083E09193023E
:100B2000F0919402808188608083E0919302F0913B
:100B30009402808180688083E0919302F091940216
:100B400080818F7D80836BE172E0CE0101967C0114
:100B500068DE8E010F5D1F4F69E272E0C80161DE41
:100B60008D819E81A980BA80CDA0DEA0C80ED91E3D
:100B7000A114B10409F4E8C0892B81F0B601C801C1
:100B800011DE882309F4E0C029A13AA18DA19EA11C
:100B9000B501820F931F62D3DEA2CDA2CDA0DEA04D
:100BA00096E0C90ED11CB601C801FCDD8111CFC091
:100BB000C8011FDE4DA15EA169A17AA181E892E082
:100BC00065DBD4DDC80126DEC70124DE8AE090E0C3
:100BD000ACDD90E2B92E81E892E0F5DB181619063B
:100BE0000CF0D1C06701A2DB97FD09C08A309105E6
:100BF00031F0F60181936F010E171F07A1F71AA2BA
:100C000019A21CA21BA21EA21DA2F7010190002086
:100C1000E9F731976F01CE18DF08B601C801C2DDD0
:100C20008111A1C0C801E5DD8DA19EA1892B49F0EC
:100C300064E372E089A19AA108D3DD24D394892BBF
:100C400009F0D12CC801E6DDDD2009F493C088E36A
:100C500092E093DD8AE090E068DD81E0F7019B2D72
:100C600011929A95E9F7882309F4B5CF60E08DE0F9
:100C70007CDC8EE1982E5E01E3E0AE0EB11C18A67E
:100C80001FA21AA619A61CA61BA670E060E0CE0142
:100C9000879688DD811179C0CE018796AADD1A82F8
:100CA0001982F501892D11928A95E9F781E892E080
:100CB0008ADB181619066CF4670138DB97FD09C04A
:100CC0008A30910531F0F60181936F010E171F07ED
:100CD000A1F71AA219A21CA21BA21EA21DA2F70113
:100CE00001900020E9F731976F01CE18DF08B601B7
:100CF000C80158DD811151C0C8017BDD8FA198A5C5
:100D0000009709F452C069A17AA16115710509F42F
:100D10004BC049A55AA52DA13EA14217530708F47F
:100D200043C09CD28DA19EA19CA78BA71EA21DA2F1
:100D3000C80170DD64EF71E080E090E0C6DCCE01B8
:100D4000879668DDE2DB9BCFC80153DD27CF29A161
:100D50003AA18DA19EA16DE272E0820F931F7ED217
:100D6000DEA2CDA227CFDEA2CDA2B70189A19AA192
:100D700075D25ACF85E090E0D8DC81E592E0FDDCC9
:100D800060E08CE0F2DB80E069CF1CA61BA66AE184
:100D900072E08FA198A562D282CFDEA2CDA2B70168
:100DA00089A19AA15BD2AACFE2D089A19AA198A7E2
:100DB0008FA38BA19CA19AA789A78DA19EA19CA777
:100DC0008BA71AA219A21CA21BA2B0CFE1E8F2E0E5
:100DD0001382128288EE93E0A0E0B0E084839583D2
:100DE000A683B7838AE092E09183808385EC90E0CC
:100DF0009587848784EC90E09787868780EC90E0E5
:100E0000918B808B81EC90E0938B828B82EC90E0D5
:100E1000958B848B86EC90E0978B868B118E128E4F
:100E2000138E148E0895EE0FFF1F881F8BBF07903F
:100E3000F691E02D19940F931F93CF93DF93823097
:100E4000910510F482E090E0E0912003F0912103FD
:100E500030E020E0B0E0A0E0309799F421153105B2
:100E600009F44AC0281B390B24303105D8F58A8192
:100E70009B816115710589F1FB0193838283FE01DA
:100E800011C0408151810281138148175907E0F058
:100E90004817590799F4109761F012960C9312971E
:100EA00013961C933296CF01DF91CF911F910F9132
:100EB00008950093200310932103F4CF21153105E9
:100EC00051F04217530738F0A901DB019A01BD0127
:100ED000DF01F801C1CFEF01F9CF90932103809397
:100EE0002003CDCFFE01E20FF31F81939193225097
:100EF000310939832883D7CF20911E0330911F03F6
:100F0000232B41F4209102023091030230931F03FE
:100F100020931E032091000230910102211531051A
:100F200041F42DB73EB74091040250910502241BB5
:100F3000350BE0911E03F0911F03E217F307A0F4B5
:100F40002E1B3F0B2817390778F0AC014E5F5F4F1F
:100F50002417350748F04E0F5F1F50931F0340932F
:100F60001E03819391939FCFF0E0E0E09CCFCF935D
:100F7000DF930097E9F0FC01329713821282A0916F
:100F80002003B0912103ED0130E020E01097A1F49F
:100F900020813181820F931F20911E0330911F0306
:100FA0002817390709F061C0F0931F03E0931E036F
:100FB000DF91CF910895EA01CE17DF07E8F54A8166
:100FC0005B819E0141155105B1F7E901FB83EA837D
:100FD00049915991C40FD51FEC17FD0761F4808129
:100FE00091810296840F951FE901998388838281FC
:100FF00093819B838A83F0E0E0E012968D919C912F
:1010000013970097B9F52D913C911197CD01029658
:10101000820F931F20911E0330911F032817390759
:1010200039F6309751F51092210310922003B093B6
:101030001F03A0931E03BCCFD383C2834081518181
:10104000840F951FC817D90761F44E5F5F4F8881E1
:101050009981480F591F518340838A819B819383D3
:1010600082832115310509F0B0CFF0932103E0937D
:1010700020039ECFFD01DC01C0CF13821282D7CFA7
:101080004F925F926F927F928F929F92AF92BF9298
:10109000CF92DF92EF92FF920F931F93CF93DF9344
:1010A0008C01009791F4CB01DF91CF911F910F91AB
:1010B000FF90EF90DF90CF90BF90AF909F908F9078
:1010C0007F906F905F904F90B6CEFC01E60FF71FB8
:1010D0009C0122503109E217F30708F4AAC0D90194
:1010E000CD91DC911197C617D70718F1C530D105FE
:1010F00070F0CE0104978617970748F0C61BD70BF0
:101100002297C193D1936D937C93CF0130DFC801B7
:10111000DF91CF911F910F91FF90EF90DF90CF90D3
:10112000BF90AF909F908F907F906F905F904F9007
:1011300008955B01AC1ABD0A4C018C0E9D1EA09156
:101140002003B0912103512C412CF12CE12C10975C
:1011500031F580911E0390911F038815990509F0C0
:101160005CC04616570608F058C080910002909166
:101170000102009741F48DB79EB74091040250914F
:101180000502841B950BE817F90708F052C0F0938D
:101190001F03E0931E03F90171836083B8CF8D9123
:1011A0009C91119712966C90129713967C901397BE
:1011B000A815B90559F56C0142E0C40ED11CCA143A
:1011C000DB0420F1AC014A195B09DA01129615978C
:1011D00080F06282738251834083D9016D937C9346
:1011E000E114F10471F0D7011396FC93EE9312977A
:1011F0008ECF22968C0F9D1FF90191838083F3017E
:10120000EFCFF0932103E093200381CF48165906D6
:1012100008F42C017D01D3019ACFCB010CDE7C01B7
:10122000009739F0AE01B80107D0C801A0DE8701F0
:101230006ECF10E000E06BCFFB01DC0102C001903B
:101240000D9241505040D8F70895FB01DC018D917B
:10125000019080190110D9F3990B0895FB01DC016D
:0E12600001900D920020E1F70895F894FFCF61
:10126E00000022038000000000001A0246017301F4
:10127E006602E3018201D5010D0A005253442D4D41
:10128E004547412032353630005B215D00204172EA
:10129E006D656400555441005B2B5D20436F6E6E8F
:1012AE00656374696F6E20415050524F5645442EFF
:1012BE00005B215D20436F6E6E656374696F6E20F7
:1012CE00776173206465636C696E65642C2052458A
:0812DE00535454494E472E0001
:00000001FF
