:10000000F5C0000022C1000020C100001EC1000098
:100010001CC100001AC1000018C1000016C1000078
:1000200014C1000012C1000010C100000EC1000088
:100030000CC100000AC1000008C1000006C1000098
:1000400004C1000002C1000000C10000FEC00000A9
:10005000FCC00000FAC00000F8C000004AC4000064
:10006000F4C0000010C40000E5C30000EEC00000B2
:10007000ECC00000EAC00000E8C00000E6C00000DC
:10008000E4C00000E2C00000E0C00000DEC00000EC
:10009000DCC00000DAC00000D8C00000D6C00000FC
:1000A000D4C00000D2C00000D0C00000CEC000000C
:1000B000CCC00000CAC00000C8C00000C6C000001C
:1000C000C4C00000C2C00000C0C00000BEC000002C
:1000D000BCC00000BAC00000B8C00000B6C000003C
:1000E000B4C0000000000A0B02090C0D0E08070343
:1000F00004010000000000000000000000000000FB
:1001000000000000000000000000000000000000EF
:1001100012111000000000000000000000000000AC
:100120000000000000000000000000002200250088
:1001300028002B002E0031003400020100000501D0
:1001400008010B0100002100240027002A002D00D7
:100150003000330001010000040107010A01050518
:100160000505070508080808020202020A0A08082D
:10017000040404040101010101010101030303035B
:1001800003030303040707070C0C0C0C0C0C0C0CEA
:100190000202020206060606060606060B0B0B0BFB
:1001A0000B0B0B0B01021020200808102040102020
:1001B000408002010201080402010102040810202B
:1001C0004080804020100804020180040201804029
:1001D0002010080402010804020101020408102092
:1001E000408001020408102040802F0711241FBE08
:1001F000CFEFD1E2DEBFCDBF00E00CBF23E0AAEA23
:10020000B2E001C01D92A435B207E1F712E0A0E010
:10021000B2E0E6E1F3E100E00BBF02C007900D920F
:10022000AA3AB107D9F710E0C6EFD0E000E005C068
:1002300021970109802FFE014AD6C53FD10780E0F2
:100240000807B1F7A0D30C948909DACE90E0FC013D
:10025000EC55FE4F2491825A9E4FFC0184918823D5
:1002600099F090E0880F991FFC01EC5BFE4FA5917F
:10027000B491FC01E65DFE4F859194918FB7F8949F
:10028000EC91E22BEC938FBF08950895AF92BF924B
:10029000CF92DF92EF92FF920F931F93CF93DF9352
:1002A0006C017B018B01040F151FEB015E01AE1881
:1002B000BF08C017D10759F06991D601ED91FC91A3
:1002C0000190F081E02DC6011995892B79F7C501C0
:1002D000DF91CF911F910F91FF90EF90DF90CF9022
:1002E000BF90AF900895FC01538D448D252F30E0D1
:1002F000842F90E0821B930B541710F0CF96089533
:1003000001970895FC01918D828D981761F0A28D5F
:10031000AE0FBF2FB11D5D968C91928D9F5F9F7325
:10032000928F90E008958FEF9FEF0895FC01918DDB
:10033000828D981731F0828DE80FF11D858D90E048
:1003400008958FEF9FEF0895FC01918D228D892FE5
:1003500090E0805C9F4F821B91098F7399270895CD
:1003600083EB92E0F1DF21E0892B09F420E0822F7A
:100370000895FC01A48DA80FB92FB11DA35ABF4F3A
:100380002C91848D90E001968F739927848FA68994
:10039000B7892C93A089B1898C91837080648C93E8
:1003A000938D848D981306C00288F389E02D808197
:1003B0008F7D80830895EF92FF920F931F93CF93C9
:1003C000DF93EC0181E0888F9B8D8C8D98131AC090
:1003D000E889F989808185FF15C09FB7F894EE8977
:1003E000FF896083E889F9898081837080648083D4
:1003F0009FBF81E090E0DF91CF911F910F91FF901F
:10040000EF900895F62E0B8D10E00F5F1F4F0F73C6
:100410001127E02E8C8D8E110BC00FB607FCFACF82
:10042000E889F989808185FFF5CFCE01A2DFF2CF7F
:10043000EB8DEC0FFD2FF11DE35AFF4FF0829FB7BC
:10044000F8940B8FEA89FB8980818062D0CFCF93AB
:10045000DF93EC01888D8823B1F0AA89BB89E889F4
:10046000F9898C9185FD03C0808186FD0CC00FB693
:1004700007FCF7CF8C9185FFF2CF808185FFEDCF10
:10048000CE0177DFEACFDF91CF91089580E090E051
:10049000892B21F065DF81110E94000080E090E04F
:1004A000892B49F080E090E0892B29F00E94000020
:1004B00081110E94000080E090E0892B49F080E0EB
:1004C00090E0892B29F00E94000081110E94000019
:1004D00080E090E0892B49F080E090E0892B29F0C2
:1004E0000E94000081110C9400000895282F30E034
:1004F000F901EC51FF4F9491F901EC55FE4F4491F5
:10050000225A3E4FF9012491222309F434C0992341
:1005100009F191509231F0F4E92FF0E08827ED567F
:10052000FD4F8F4FD4C4C402C802A502BC02C00252
:10053000AA02CB02D102D502DB02DF02E302E9020A
:10054000ED02AA02F102F702FB02809180008F7790
:1005500080938000E22FF0E0EE0FFF1FE65DFE4F7C
:10056000A591B4918FB7F894EC91611148C0409572
:100570004E234C938FBF0895809180008F7DE8CFEC
:1005800080918000877FE4CF84B58F7784BDE2CFF0
:1005900084B58F7DFBCF8091B0008F778093B000C2
:1005A000D9CF8091B0008F7DF9CF809190008F7767
:1005B00080939000CFCF809190008F7DF9CF809174
:1005C0009000877FF5CF8091A0008F778093A00067
:1005D000C1CF8091A0008F7DF9CF8091A000877F4F
:1005E000F5CF809120018F7780932001B3CF809148
:1005F00020018F7DF9CF80912001877FF5CF4E2B91
:10060000B8CF3FB7F8948091AB029091AC02A09123
:10061000AD02B091AE0226B5A89B05C02F3F19F0E0
:100620000196A11DB11D3FBFBA2FA92F982F882772
:10063000BC01CD01620F711D811D911D42E0660F4D
:10064000771F881F991F4A95D1F708958F929F921F
:10065000AF92BF92CF92DF92EF92FF924B015C017B
:10066000D0DF6B017C01CDDF6C197D098E099F09FC
:10067000683E734081059105B0F321E0821A91082C
:10068000A108B10888EEC80E83E0D81EE11CF11C59
:1006900081149104A104B10431F7FF90EF90DF9031
:1006A000CF90BF90AF909F908F9008950F931F931E
:1006B000CF93DF938C01D0E0C0E0C017D10790F456
:1006C00061E08DE013DF62E370E080E090E0BEDF88
:1006D00060E08DE00BDF62E370E080E090E0B6DF89
:1006E0002196EBCFDF91CF911F910F91089542E0BA
:1006F00050E068E172E083EB92E0C8CDCF93DF93E6
:10070000FC0101900020E9F73197AF01481B590B1C
:10071000BC0183EB92E0BADDEC01E9DF8C0F9D1F99
:10072000DF91CF9108950F931F93CF93DF93EC0147
:1007300088819981009759F02A813B8126173707D4
:1007400030F081E0DF91CF911F910F9108958B01DF
:100750006F5F7F4FE9D4009759F0998388831B839B
:100760000A832C813D81232B61F7FC011082E9CFA4
:1007700080E0E8CFEF92FF920F931F93CF93DF9328
:100780006115710541F480E0DF91CF911F910F91C8
:10079000FF90EF90089541155105A1F07B01EC0108
:1007A0000C811D81040F151FB801BDDF882359F38B
:1007B000288139818C819D81B701820F931FA2D539
:1007C0001D830C8381E0E0CFCF93DF93EC01888120
:1007D0009981009709F01FD4198218821D821C820A
:1007E0001B821A82DF91CF910895EF92FF920F93AF
:1007F0001F93CF93DF93EC017B018A01BA0193DF52
:1008000081110AC0CE01E0DFCE01DF91CF911F91AF
:100810000F91FF90EF9008951D830C83B70188819D
:10082000998170D5F1CFFC0180819181009709F009
:10083000F2C308951F920F920FB60F9211240BB6B8
:100840000F922F933F934F935F936F937F938F9369
:100850009F93AF93BF93EF93FF9383EB92E089DD78
:10086000FF91EF91BF91AF919F918F917F916F9188
:100870005F914F913F912F910F900BBE0F900FBE44
:100880000F901F9018951F920F920FB60F92112480
:100890000BB60F922F938F939F93EF93FF93E0915B
:1008A000C302F091C4028081E091C902F091CA02B2
:1008B00082FD1DC090818091CC028F5F8F7320914B
:1008C000CD02821741F0E091CC02F0E0ED54FD4FF3
:1008D000958F8093CC02FF91EF919F918F912F91F3
:1008E0000F900BBE0F900FBE0F901F901895808138
:1008F000F2CF1F920F920FB60F9211242F933F93B6
:100900008F939F93AF93BF938091AF029091B0026A
:10091000A091B102B091B2023091AA0223E0230F5C
:100920002D3758F50196A11DB11D2093AA02809381
:10093000AF029093B002A093B102B093B202809143
:10094000AB029091AC02A091AD02B091AE020196C3
:10095000A11DB11D8093AB029093AC02A093AD0298
:10096000B093AE02BF91AF919F918F913F912F9124
:100970000F900FBE0F901F90189526E8230F029638
:10098000A11DB11DD2CFCF93DF93CDB7DEB7A29714
:100990000FB6F894DEBF0FBECDBF789484B58260E9
:1009A00084BD84B5816084BD85B5826085BD85B513
:1009B000816085BD80916E00816080936E00109291
:1009C000810080918100826080938100809181000C
:1009D000816080938100809180008160809380009D
:1009E0008091B10084608093B1008091B0008160FB
:1009F0008093B000809191008260809391008091FB
:100A0000910081608093910080919000816080933B
:100A100090008091A10082608093A1008091A1004C
:100A200081608093A1008091A00081608093A000EC
:100A30008091210182608093210180912101816058
:100A40008093210180912001816080932001809119
:100A50007A00846080937A0080917A00826080932B
:100A60007A0080917A00816080937A0080917A0088
:100A7000806880937A001092C10061E08CE036DDDE
:100A800068EC70E080E090E0E1DD8CE0DFDB8DE0A1
:100A9000DDDBE091C302F091C40282E08083E0914B
:100AA000BF02F091C0021082E091C102F091C20237
:100AB00080E180831092CB02E091C702F091C802DE
:100AC00086E08083E091C502F091C602808180615A
:100AD0008083E091C502F091C602808188608083A6
:100AE000E091C502F091C602808180688083E09128
:100AF000C502F091C60280818F7D80831A8219829F
:100B00001C821B821E821D824DE050E06BE172E070
:100B1000CE0101966ADE1A8A198A1C8A1B8A1E8AED
:100B20001D8A7E0181E1E80EF11C43E050E069E29C
:100B300072E0C7015ADE4D815E8169817A81C70109
:100B400019DE811102C0C7013FDE45E050E06DE2D1
:100B500072E0C7010FDE811102C0C70135DE4D8989
:100B60005E8969897A8983EB92E090DBC0DDC701F9
:100B70005ADECE01019657DE83EB92E0E5DB1816D4
:100B80001906D4F78AE090E091DD83E392E0B6DDC8
:100B90008E010F5F1F4F2FB7F8948091AF02909195
:100BA000B002A091B102B091B2022FBF8093BB02FC
:100BB0009093BC02A093BD02B093BE0283EB92E07F
:100BC000A1DB97FF40C12FB7F8948091AF029091BD
:100BD000B002A091B102B091B2022FBF4091BB020E
:100BE0005091BC026091BD027091BE02841B950BB6
:100BF000A60BB70B4091B7025091B8026091B902B1
:100C00007091BA0284179507A607B707B8F28981D1
:100C10008A3509F098C082E692E070DD60E08DE0F0
:100C200065DC1E8E1D8E18A21F8E1AA219A250E01E
:100C300040E06AE172E0CE014D96D7DD1A8A198A4A
:100C40001C8A1B8A1E8A1D8A50E040E06AE172E01D
:100C5000C701CBDD83EB92E077DB892B09F4B1C0D0
:100C600083EB92E04FDB182F89831A8241E050E03A
:100C7000BE016F5F7F4FC7017DDD1D3061F4A98824
:100C8000BA88A114B10439F00D891E8965010115D6
:100C9000110509F063C089899A89988F8F8B8B8998
:100CA0009C899A8F898F8D899E899C8F8B8F1A8AB8
:100CB000198A1C8A1B8A1E8A1D8AC701B4DD8D8D84
:100CC0009E8D009709F4AEC06F89788D611571050E
:100CD00009F4A7C04F8D58A12B8D3C8D42175307A7
:100CE00008F49FC00FD38B8D9C8D9AA389A31C8E73
:100CF0001B8ECE01479697DD89A19AA1892B41F0E1
:100D000067E272E08D8D9E8DF4D2892B09F496CF27
:100D100085E090E0CBDC1A8219821C821B821E8245
:100D20001D826D8D7E8D6115710529F049A15AA135
:100D3000CE0101965ADDCE01019675DDCE014D96AC
:100D400072DDA4DB6ECF84E690E0B0DC8BE792E04E
:100D5000D5DC60E08CE0CADB0FCF64014601FFEF19
:100D60008F1A9F0AF6018081082E000C990BA4D0DF
:100D7000892B99F7015011090A0D1B1DF80180817B
:100D8000082E000C990B98D0892B31F00C151D05FD
:100D900018F001501109F2CFA8014F5F5F4F4C19B5
:100DA0005D095E8B4D8BAC14BD0418F4B601C50112
:100DB00097D2E989FA898D899E89E80FF91F1082F7
:100DC0006ACF1A8219821C821B821E821D82698947
:100DD0007A896115710529F04D895E89CE010196E8
:100DE00004DD41E050E067E272E0CE010196C2DC32
:100DF000811103C0CE010196E7DC188E1F8A1A8E7E
:100E0000198E1C8E1B8E69817A816115710529F0FE
:100E10004D815E81CE014796E8DCCE01019603DD6F
:100E20004CCFF9D08F89988D9E8F8D8F898D9A8D1B
:100E300098A38F8F8B8D9C8D9AA389A3188E1F8A60
:100E40001A8E198E54CF8A30910509F4E0CEF8013C
:100E500081938F01EE16FF0609F09DCED8CEE3EB0D
:100E6000F2E01382128288EE93E0A0E0B0E0848387
:100E70009583A683B7838AE092E09183808385EC93
:100E800090E09587848784EC90E09787868780EC54
:100E900090E0918B808B81EC90E0938B828B82EC45
:100EA00090E0958B848B86EC90E0978B868B118EEF
:100EB000128E138E148E0895911106C0803219F08F
:100EC00089508550D0F70895992788270895EE0F07
:100ED000FF1F881F8BBF0790F691E02D19940F9389
:100EE0001F93CF93DF938230910510F482E090E05E
:100EF000E0915203F091530330E020E0B0E0A0E035
:100F0000309799F42115310509F44AC0281B390B93
:100F100024303105D8F58A819B816115710589F1ED
:100F2000FB0193838283FE0111C0408151810281C4
:100F3000138148175907E0F04817590799F410979B
:100F400061F012960C93129713961C933296CF0170
:100F5000DF91CF911F910F91089500935203109349
:100F60005303F4CF2115310551F04217530738F0E0
:100F7000A901DB019A01BD01DF01F801C1CFEF0139
:100F8000F9CF9093530380935203CDCFFE01E20F2C
:100F9000F31F819391932250310939832883D7CF4E
:100FA0002091500330915103232B41F420910202F0
:100FB000309103023093510320935003209100029B
:100FC000309101022115310541F42DB73EB7409112
:100FD000040250910502241B350BE0915003F0915F
:100FE0005103E217F307A0F42E1B3F0B2817390714
:100FF00078F0AC014E5F5F4F2417350748F04E0F75
:101000005F1F5093510340935003819391939FCF5F
:10101000F0E0E0E09CCFCF93DF930097E9F0FC0194
:10102000329713821282A0915203B0915303ED01C3
:1010300030E020E01097A1F420813181820F931FCE
:1010400020915003309151032817390709F061C0EE
:10105000F0935103E0935003DF91CF910895EA019B
:10106000CE17DF07E8F54A815B819E0141155105E6
:10107000B1F7E901FB83EA8349915991C40FD51F68
:10108000EC17FD0761F4808191810296840F951F12
:10109000E90199838883828193819B838A83F0E02D
:1010A000E0E012968D919C9113970097B9F52D91E0
:1010B0003C911197CD010296820F931F209150030E
:1010C000309151032817390739F6309751F51092AE
:1010D000530310925203B0935103A0935003BCCF1B
:1010E000D383C28340815181840F951FC817D907CC
:1010F00061F44E5F5F4F88819981480F591F51837A
:1011000040838A819B81938382832115310509F075
:10111000B0CFF0935303E09352039ECFFD01DC0167
:10112000C0CF13821282D7CF4F925F926F927F927D
:101130008F929F92AF92BF92CF92DF92EF92FF92E7
:101140000F931F93CF93DF938C01009791F4CB0102
:10115000DF91CF911F910F91FF90EF90DF90CF9093
:10116000BF90AF909F908F907F906F905F904F90C7
:10117000B6CEFC01E60FF71F9C0122503109E217A1
:10118000F30708F4AAC0D901CD91DC911197C617D5
:10119000D70718F1C530D10570F0CE010497861736
:1011A000970748F0C61BD70B2297C193D1936D9335
:1011B0007C93CF0130DFC801DF91CF911F910F9158
:1011C000FF90EF90DF90CF90BF90AF909F908F9067
:1011D0007F906F905F904F9008955B01AC1ABD0AAD
:1011E0004C018C0E9D1EA0915203B0915303512CC3
:1011F000412CF12CE12C109731F580915003909106
:1012000051038815990509F05CC04616570608F089
:1012100058C08091000290910102009741F48DB76F
:101220009EB74091040250910502841B950BE8176C
:10123000F90708F052C0F0935103E0935003F9010D
:1012400071836083B8CF8D919C91119712966C90A9
:10125000129713967C901397A815B90559F56C0150
:1012600042E0C40ED11CCA14DB0420F1AC014A19BF
:101270005B09DA011296159780F0628273825183BE
:101280004083D9016D937C93E114F10471F0D7018F
:101290001396FC93EE9312978ECF22968C0F9D1F80
:1012A000F90191838083F301EFCFF0935303E0932F
:1012B000520381CF4816590608F42C017D01D30151
:1012C0009ACFCB010CDE7C01009739F0AE01B8015A
:1012D00007D0C801A0DE87016ECF10E000E06BCF21
:1012E000FB01DC0102C001900D9241505040D8F743
:1012F0000895FB01DC018D91019080190110D9F353
:10130000990B0895FB01DC0101900D920020E1F79B
:061310000895F894FFCFE0
:1013160000005403800000000000DB014601730159
:101326002702A401820196010D0A005253442D4D55
:101336004547412032353630005B215D0041726DF4
:101346006564005B2B5D20436F6E6E656374696F29
:101356006E2045535441424C49534845442C206124
:1013660077616974696E6720617070726F76616CFF
:101376002E005B2B5D20436F6E6E656374696F6E26
:1013860020415050524F5645442E005B215D20436C
:101396006F6E6E656374696F6E20776173204E4F52
:1013A600542065737461626C69736865642C20529D
:0A13B60045535454494E472E0000E1
:00000001FF
