:10000000F5C0000021C100001FC100001DC100009B
:100010001BC1000019C1000017C1000015C100007C
:1000200013C1000026C4000024C4000022C4000044
:100030000BC1000009C1000007C1000005C100009C
:1000400003C1000001C10000FFC00000FDC00000AE
:10005000FBC00000F9C00000F7C00000C0C30000F2
:10006000F3C0000086C300005BC30000EDC00000C9
:10007000EBC00000E9C00000E7C00000E5C00000E0
:10008000E3C00000E1C00000DFC00000DDC00000F0
:10009000DBC00000D9C00000D7C00000D5C0000000
:1000A000D3C00000D1C00000CFC00000CDC0000010
:1000B000CBC00000C9C00000C7C00000C5C0000020
:1000C000C3C00000C1C00000BFC00000BDC0000030
:1000D000BBC00000B9C00000B7C00000B5C0000040
:1000E000B3C0000000000A0B02090C0D0E08070344
:1000F00004010000000000000000000000000000FB
:1001000000000000000000000000000000000000EF
:1001100012111000000000000000000000000000AC
:100120000000000000000000000000002200250088
:1001300028002B002E0031003400020100000501D0
:1001400008010B0100002100240027002A002D00D7
:100150003000330001010000040107010A01050518
:100160000505070508080808020202020A0A08082D
:10017000040404040101010101010101030303035B
:1001800003030303040707070C0C0C0C0C0C0C0CEA
:100190000202020206060606060606060B0B0B0BFB
:1001A0000B0B0B0B01021020200808102040102020
:1001B000408002010201080402010102040810202B
:1001C0004080804020100804020180040201804029
:1001D0002010080402010804020101020408102092
:1001E00040800102040810204080680511241FBED1
:1001F000CFEFD1E2DEBFCDBF00E00CBF23E0AEE920
:10020000B2E001C01D92A634B207E1F712E0A0E00F
:10021000B2E0EEE3FBE000E00BBF02C007900D92FE
:10022000AE39B107D9F710E0C6EFD0E000E005C065
:1002300021970109802FFE0178D4C53FD10780E0C6
:100240000807B1F720D379C4DBCE90E0FC01EC5570
:10025000FE4F2491825A9E4FFC018491882399F08D
:1002600090E0880F991FFC01EC5BFE4FA591B491C3
:10027000FC01E65DFE4F859194918FB7F894EC9167
:10028000E22BEC938FBF0895AF92BF92CF92DF9293
:10029000EF92FF920F931F93CF93DF936C017B013B
:1002A0008B01040F151FEB015E01AE18BF08C017CC
:1002B000D10759F06991D601ED91FC910190F0813F
:1002C000E02DC6011995892B79F7C501DF91CF91F2
:1002D0001F910F91FF90EF90DF90CF90BF90AF9064
:1002E0000895FC01538D448D252F30E0842F90E03C
:1002F000821B930B541710F0CF9608950197089521
:10030000FC01918D828D981761F0A28DAE0FBF2FE9
:10031000B11D5D968C91928D9F5F9F73928F90E03F
:1003200008958FEF9FEF0895FC01918D828D9817AE
:1003300031F0828DE80FF11D858D90E008958FEFEB
:100340009FEF0895FC01918D228D892F90E0805CB4
:100350009F4F821B91098F739927089589EA92E034
:10036000F1DF21E0892B09F420E0822F0895FC01C0
:10037000A48DA80FB92FB11DA35ABF4F2C91848D06
:1003800090E001968F739927848FA689B7892C9363
:10039000A089B1898C91837080648C93938D848DB6
:1003A000981306C00288F389E02D80818F7D8083B9
:1003B0000895EF92FF920F931F93CF93DF93EC0179
:1003C00081E0888F9B8D8C8D98131AC0E889F989FC
:1003D000808185FF15C09FB7F894EE89FF896083FF
:1003E000E889F98980818370806480839FBF81E080
:1003F00090E0DF91CF911F910F91FF90EF900895C2
:10040000F62E0B8D10E00F5F1F4F0F731127E02E9C
:100410008C8D8E110BC00FB607FCFACFE889F989D5
:10042000808185FFF5CFCE01A2DFF2CFEB8DEC0FFF
:10043000FD2FF11DE35AFF4FF0829FB7F8940B8F09
:10044000EA89FB8980818062D0CFCF93DF93EC0172
:10045000888D8823B1F0AA89BB89E889F9898C91B4
:1004600085FD03C0808186FD0CC00FB607FCF7CF69
:100470008C9185FFF2CF808185FFEDCFCE0177DFB4
:10048000EACFDF91CF91089580E090E0892B21F0B1
:1004900065DF81110E94000080E090E0892B49F027
:1004A00080E090E0892B29F00E94000081110E94D9
:1004B000000080E090E0892B49F080E090E0892BFB
:1004C00029F00E94000081110E94000080E090E06D
:1004D000892B49F080E090E0892B29F00E940000F0
:1004E00081110C9400000895282F30E0F901EC519F
:1004F000FF4F9491F901EC55FE4F4491225A3E4F23
:10050000F9012491222309F434C0992309F191506F
:100510009231F0F4E92FF0E08827EF56FD4F8F4F2E
:1005200004C3C202C602A302BA02BE02A802C902E2
:10053000CF02D302D902DD02E102E702EB02A802F8
:10054000EF02F502F902809180008F77809380009E
:10055000E22FF0E0EE0FFF1FE65DFE4FA591B49194
:100560008FB7F894EC91611148C040954E234C939D
:100570008FBF0895809180008F7DE8CF80918000AB
:10058000877FE4CF84B58F7784BDE2CF84B58F7D3C
:10059000FBCF8091B0008F778093B000D9CF80914E
:1005A000B0008F7DF9CF809190008F77809390007D
:1005B000CFCF809190008F7DF9CF80919000877F81
:1005C000F5CF8091A0008F778093A000C1CF80915C
:1005D000A0008F7DF9CF8091A000877FF5CF80911B
:1005E00020018F7780932001B3CF809120018F7DF0
:1005F000F9CF80912001877FF5CF4E2BB8CF3FB741
:10060000F8948091A1029091A202A091A302B091CE
:10061000A40226B5A89B05C02F3F19F00196A11D85
:10062000B11D3FBFBA2FA92F982F8827BC01CD013C
:10063000620F711D811D911D42E0660F771F881F9B
:10064000991F4A95D1F708958F929F92AF92BF92CA
:10065000CF92DF92EF92FF924B015C01D0DF6B01F2
:100660007C01CDDF6C197D098E099F09683E7340BE
:1006700081059105B0F321E0821A9108A108B10823
:1006800088EEC80E83E0D81EE11CF11C8114910491
:10069000A104B10431F7FF90EF90DF90CF90BF90AD
:1006A000AF909F908F9008950F931F93CF93DF93F8
:1006B0008C01D0E0C0E0C017D10790F461E08DE07C
:1006C00013DF62E370E080E090E0BEDF60E08DE089
:1006D0000BDF62E370E080E090E0B6DF2196EBCFC5
:1006E000DF91CF911F910F910895CF93DF93FC017C
:1006F00001900020E9F73197AF01481B590BBC016D
:1007000089EA92E0C1DDEC0142E050E062E172E092
:1007100089EA92E0B9DD8C0F9D1FDF91CF9108959A
:100720001F920F920FB60F9211240BB60F922F93B8
:100730003F934F935F936F937F938F939F93AF9369
:10074000BF93EF93FF9389EA92E011DEFF91EF915F
:10075000BF91AF919F918F917F916F915F914F91D9
:100760003F912F910F900BBE0F900FBE0F901F90D7
:1007700018951F920F920FB60F9211240BB60F927D
:100780002F938F939F93EF93FF93E091B902F09192
:10079000BA028081E091BF02F091C00282FD1DC0CB
:1007A00090818091C2028F5F8F732091C302821764
:1007B00041F0E091C202F0E0E755FD4F958F809344
:1007C000C202FF91EF919F918F912F910F900BBEDD
:1007D0000F900FBE0F901F9018958081F2CF1F923F
:1007E0000F920FB60F9211242F933F938F939F93E5
:1007F000AF93BF938091A5029091A602A091A7020A
:10080000B091A8023091A00223E0230F2D3758F5B4
:100810000196A11DB11D2093A0028093A502909383
:10082000A602A093A702B093A8028091A102909182
:10083000A202A091A302B091A4020196A11DB11D34
:100840008093A1029093A202A093A302B093A4026A
:10085000BF91AF919F918F913F912F910F900FBEBC
:100860000F901F90189526E8230F0296A11DB11D29
:10087000D2CF1F920F920FB60F9211240F900FBE7E
:100880000F901F901895CF93DF93CDB7DEB7609789
:100890000FB6F894DEBF0FBECDBF789484B58260EA
:1008A00084BD84B5816084BD85B5826085BD85B514
:1008B000816085BD80916E00816080936E00109292
:1008C000810080918100826080938100809181000D
:1008D000816080938100809180008160809380009E
:1008E0008091B10084608093B1008091B0008160FC
:1008F0008093B000809191008260809391008091FC
:10090000910081608093910080919000816080933C
:1009100090008091A10082608093A1008091A1004D
:1009200081608093A1008091A00081608093A000ED
:100930008091210182608093210180912101816059
:10094000809321018091200181608093200180911A
:100950007A00846080937A0080917A00826080932C
:100960007A0080917A00816080937A0080917A0089
:10097000806880937A001092C10061E08CE0B4DD61
:1009800068EC70E080E090E05FDE8CE05EDC8DE0A3
:100990005CDCE091B902F091BA0282E08083E091E0
:1009A000B502F091B6021082E091B702F091B80260
:1009B00083E380831092C102E091BD02F091BE02F8
:1009C00086E08083E091BB02F091BC02808180616F
:1009D0008083E091BB02F091BC02808188608083BB
:1009E000E091BB02F091BC02808180688083E0913D
:1009F000BB02F091BC0280818F7D808385E192E013
:100A000074DE7E0181E1E80EF11C89EA92E09ADC55
:100A100018161906D4F78AE090E046DE88E292E0E4
:100A200064DE8E010F5F1F4F2FB7F8948091A502EF
:100A30009091A602A091A702B091A8022FBF809327
:100A4000B1029093B202A093B302B093B40289EAC8
:100A500092E056DC97FF31C02FB7F8948091A50241
:100A60009091A602A091A702B091A8022FBF409139
:100A7000B1025091B2026091B3027091B402841B32
:100A8000950BA60BB70B4091AD025091AE02609151
:100A9000AF027091B00284179507A607B707B8F2A6
:100AA0008981813321F487E592E01FDEAECF84E6B1
:100AB00090E0FADD80E792E0F8CF8A30910581F38B
:100AC000F80181938F01EE15FF0509F0ADCFE8CF56
:100AD000E9EAF2E01382128288EE93E0A0E0B0E04F
:100AE00084839583A683B78384E092E09183808397
:100AF00085EC90E09587848784EC90E097878687E3
:100B000080EC90E0918B808B81EC90E0938B828BDA
:100B100082EC90E0958B848B86EC90E0978B868BB3
:100B2000118E128E138E148E0895EE0FFF1F881FE4
:0E0B30008BBF0790F691E02D1994F894FFCF3B
:100B3E0000000000D901440171012502A2018001CB
:100B4E0094010D0A005B215D205253442D4D6567C3
:100B5E00612041726D6564005B2B5D20436F6E6E8C
:100B6E00656374696F6E2045535441424C49534836
:100B7E0045442C206177616974696E6720617070DD
:100B8E00726F76616C2E005B2B5D20436F6E6E650F
:100B9E006374696F6E20415050524F5645442E007B
:100BAE005B215D20436F6E6E656374696F6E207797
:100BBE006173204E4F542065737461626C69736863
:0E0BCE0065642C205245535454494E472E0066
:00000001FF
